S00B000042434D2E7372656347
S11300000C942A000C9447000C9447000C9447006D
S11300100C9447000C9447000C9447000C94470040
S11300200C9447000C9447000C9447000C94470030
S11300300C9447000C9447000C9447000C94470020
S11300400C9447000C9447000C9447000C94470010
S11300500C94470011241FBECFE5D8E0DEBFCDBF0E
S113006010E0A0E6B0E0EEE7F5E002C005900D92E6
S1130070AE37B107D9F720E0AEE7B0E001C01D927A
S1130080AF38B207E1F70E94BC000C94BD020C9497
S1130090000086E690E00E94F30180E00E94710077
S11300A081E00E94710008950E9449002FEF89E6C3
S11300B098E1215080409040E1F700C0000086E6BE
S11300C090E00E947C02811102C00E948A0080E6B6
S11300D090E00E947C028111E9CF81E00E948A00B5
S11300E0E5CFCF93DF93823088F4C82FD0E0FE01B0
S11300F0EE0FFF1FE758FF4F618141E080810E94AE
S1130100C100C557DF4F93E0988301C085E0DF91BC
S1130110CF910895CF93DF93823040F5C82FD0E07C
S1130120FE01E557FF4F8081823079F4FE01EE0F26
S1130130FF1FE758FF4F618140E080810E94FB0070
S1130140C557DF4F93E0988314C0833089F4FE01D0
S1130150EE0FFF1FE758FF4F618141E080810E944D
S1130160FB00C557DF4F92E0988303C085E001C0D0
S113017085E0DF91CF9108950E94540080E090E0E3
S113018008956830A0F581110BC08AB350E002C015
S1130190440F551F6A95E2F7482B4ABB80E0089547
S11301A0813059F487B350E002C0440F551F6A955B
S11301B0E2F7482B47BB80E00895823059F484B3BA
S11301C050E002C0440F551F6A95E2F7482B44BB28
S11301D080E00895833069F481B350E002C0440F95
S11301E0551F6A95E2F7482B41BB80E0089581E0F2
S11301F0089582E00895683008F074C081111BC02E
S1130200413061F42BB381E090E002C0880F991F64
S11302106A95E2F7822B8BBB80E008952BB381E0D3
S113022090E002C0880F991F6A95E2F780958223B7
S11302308BBB80E008958130D9F4413061F428B358
S113024081E090E002C0880F991F6A95E2F7822B43
S113025088BB80E0089528B381E090E002C0880F55
S1130260991F6A95E2F78095822388BB80E0089500
S11302708230D9F4413061F425B381E090E002C0CA
S1130280880F991F6A95E2F7822B85BB80E0089559
S113029025B381E090E002C0880F991F6A95E2F7C8
S11302A08095822385BB80E008958330E9F4413052
S11302B061F422B381E090E002C0880F991F6A952F
S11302C0E2F7822B82BB80E0089522B381E090E0C4
S11302D002C0880F991F6A95E2F78095822382BB3A
S11302E080E0089581E0089582E0089581110EC0B0
S11302F010BC83E389B98AB188618AB980B58668FC
S113030080BD81E080938D0080E0089584E00895AD
S1130310611109C090918D00913039F45D9BFECF3D
S11303208CB980E0089584E0089584E00895611113
S11303300BC020918D00213049F45F9BFECF2CB17E
S1130340FC01208380E0089584E0089584E008950A
S11303500F931F93CF93DF93611119C020918D00E8
S11303602130B9F4C62F8C0180E3F8018083D0E0FA
S11303706C2FC8018D0F911D0E949701DF5FF8015A
S1130380ED0FF11D319790819111F2CF03C084E0FC
S113039001C084E0DF91CF911F910F9108950F93D5
S11303A01F93CF93DF93611118C020918D002130EA
S11303B039F084E013C06C2F0E948801DF5F03C012
S11303C0C62F8C01D0E0F801ED0FF11D8081811161
S11303D0F2CF6C2F0E94880101C084E0DF91CF919D
S11303E01F910F910895009789F0FC01208121113C
S11303F00FC0818181110EC080918E0081110CC0CB
S11304000E94760191E090938E00089586E008950D
S113041086E0089586E0089586E00895009799F0AF
S1130420FC012081211111C02181211110C02091D2
S11304308E00213071F40480F581E02D60E080812C
S11304400E948801089586E0089586E0089586E074
S1130450089586E00895009789F0FC012081211118
S11304600FC0218121110EC020918E00213061F432
S113047060E0848195810E94CF01089586E008950B
S113048086E0089586E0089586E00895009789F04F
S1130490FC01208121110FC0218121110EC0209166
S11304A08E00213061F460E0848195810E9497017F
S11304B0089586E0089586E0089586E0089586E02C
S11304C00895009789F0FC01208121110FC021813A
S11304D021110EC020918E00213061F460E08481EE
S11304E095810E94A801089586E0089586E0089504
S11304F086E0089586E00895009779F1FC018281F1
S1130500882319F08130A9F02AC08381882319F047
S1130510813041F026C08081811125C0CF010E9425
S11305200E0208958081811120C0CF010E942B0208
S113053008958381882319F0813041F018C08081A7
S1130540811117C0CF010E94460208958081811154
S113055012C0CF010E946102089586E0089586E0EA
S1130560089586E0089586E0089586E0089586E07B
S1110570089586E0089586E00895F894FFCF7C
S113057E000001017E00000000016C004920616D45
S111058E204D61686D6F75640000000001006F
S9030000FC
