:100000000C942A000C9447000C9447000C94470071
:100010000C9447000C9447000C9447000C94470044
:100020000C9447000C9447000C9447000C94470034
:100030000C9447000C9447000C9447000C94470024
:100040000C9447000C9447000C9447000C94470014
:100050000C94470011241FBECFE5D8E0DEBFCDBF12
:1000600011E0A0E6B0E0EAECF1E002C005900D92EC
:10007000A835B107D9F721E0A8E5B1E001C01D928C
:10008000A935B207E1F70E9449000C94E3000C94F3
:10009000000080E00E949E0060E080E690E00E9408
:1000A000BF0060E08DE00E94B00060E089E690E073
:1000B0000E94BF0060E08DE00E94B00060E081E837
:1000C00090E00E94BF0060E08DE00E94B00060E020
:1000D0008BE990E00E94BF0060E08DE00E94B000DC
:1000E00060E088EB90E00E94BF0060E08DE00E943D
:1000F000B00060E085ED90E00E94BF0060E08DE020
:100100000E94B00060E083EF90E00E94BF0060E0DA
:100110008DE00E94B00060E087E191E00E94BF00A6
:1001200060E08DE00E94B00060E086E391E00E9414
:10013000BF0060E08DE00E94B000FFCF81110EC0D3
:1001400010BC83E389B98AB188618AB980B58668B1
:1001500080BD81E08093580180E0089584E0089597
:10016000611109C090915801913039F45D9BFECF27
:100170008CB980E0089584E0089584E008950F9399
:100180001F93CF93DF93611118C020915801213044
:1001900039F084E013C06C2F0E94B000DF5F03C011
:1001A000C62F8C01D0E0F801ED0FF11D8081811187
:1001B000F2CF6C2F0E94B00001C084E0DF91CF919C
:0A01C0001F910F910895F894FFCFEE
:1001CA0020456E746572202E00203120466F722001
:1001DA003A20416464696E672075736572202E2027
:1001EA0000203220466F72203A2044656C6574699B
:1001FA006E672075736572202E2000203320466FAB
:10020A0072203A204F70656E696E672074686520A7
:10021A0067617465202E2000203420466F72203AD0
:10022A0020436C6F73696E67207468652067617418
:10023A0065202E2000203520466F72203A20557303
:10024A0065727320696E666F726D6174696F6E2074
:10025A002E2000203620466F72203A206368616E95
:10026A0067696E672075736572277320706173738F
:10027A00776F7264202E00203720466F72203A2052
:10028A0053746F7070696E67207468652042757A5E
:10029A007A6572202E00203820466F72203A205349
:1002AA00657474696E672074696D6520616E642077
:0802BA0064617465202E000050
:00000001FF
